HEADER02            12345DWV10PA01001201208102012040120120630P&CN                                                                                                                                                                                                                                                                                                                                                                                                                                                                                                                                                                                                                                                                                                                                                                                                                                                                                                                                                                                                                                                                                                                                                                                                                                                                                                                                                                                                                                                                                                                                                                                                                                                                                                     
D30503WV10201206301WV INSURANCE GUARANTY ASSOC   1840 MACKENZIE DRIVE          SUITE 100                     COLUMBUS                 OH432202980JOHN SMITH                    VP OF INTERNAL OPERATIONS     6145551212JSMITH@XXXXX.COM              000000000000+000000000000+000000000000+000000000000+000000091466-000000000000+000000000000+000000000000+000000000000+000000000000+000000000000+000000000000+000000000000+000000197080+000000000000+000000000000+000000000000+000000000000+000000000000+000000000000+000000000000+000000000000+000002780943+000000006770+000000000000+000000116477+000000224603+000000529667+000000000000+000000000000+                                                                000000000000+                                                                000000000000+                                                                000000000000+                                                                000000000000+000000000000+T000000000000+000000000000+000000000000+                                                                000000000000+                                                                000000000000+                                                                000000000000+                                                                000000000000+000005001200+000000000000+000000000000+000000000000+000000862525+000000369653+                                                                                                                                                                                                                                                                                                                                
D30503WV10201206302WV INSURANCE GUARANTY ASSOC   1840 MACKENZIE DRIVE          SUITE 100                     COLUMBUS                 OH432202980JOHN SMITH                    VP OF INTERNAL OPERATIONS     6145551212JSMITH@XXXXX.COM              000001750000+000000000000+000000000000+000000000000+000000190026-000000000000+000000000000+000000000000+000000000000+000000000000+000000000000+000000000000+000000000000+000000733605+000000000000+000000000000+000000000000+000000000000+000000000000+000000000000+000000000000+000000000000+000005476763+000000006770+000000000000+000000168427+000000499098+000001139576+000000000000+000000000000+                                                                000000000000+                                                                000000000000+                                                                000000000000+                                                                000000000000+000000000000+T000000000000+000000000000+000000000000+                                                                000000000000+                                                                000000000000+                                                                000000000000+                                                                000000000000+000000000000+000000000000+000000000000+000000000000+000000000000+000000000000+                                                                                                                                                                                                                                                                                                                                
D30503WV10201206303WV INSURANCE GUARANTY ASSOC   1840 MACKENZIE DRIVE          SUITE 100                     COLUMBUS                 OH432202980JOHN SMITH                    VP OF INTERNAL OPERATIONS     6145551212JSMITH@XXXXX.COM              000219781749+000000000000+000000000000+000001066320-000001780664-000000000000+000000000000+000000000000+000000000000+000000000000+000000000000+000335091025+000000000000+000094976830+000000152519-000006150903+000000018080-000000000000+000000000000+000000000000+000000000000+000000000000+000146063218+000001333841+000003201496+000002337839+000013060585+000023922166+000000000000+000000000000+                                                                000000000000+                                                                000000000000+                                                                000000000000+                                                                000000000000+000000000000+T000000000000+000281595386-000000000000+                                                                000000000000+                                                                000000000000+                                                                000000000000+                                                                000000000000+000000000000+000000000000+000000000000+000000000000+000000000000+000000000000+                                                                                                                                                                                                                                                                                                                                
TRAILER             12345DWV10PA01001201208102012040120120630P&C00000000300000005001200+00000001232178+00000000105614+00000003658460+00000000000000+00000002293579+00000007290634+00000000000000+00000653001004+00000189919145+00000281595386-                                                                                                                                                                                                                                                                                                                                                                                                                                                                                                                                                                                                                                                                                                                                                                                                                                                                                                                                                                                                                                                                                                                                                                                                                                                                                                                                                                                                                                                                                                                        
